:020000041A00E0
:10000000008000101106001A7901001A7B01001A05
:100010007D01001A7F01001A8101001A7E72FF53D0
:100020000000000000000000000000008301001A32
:100030008501001A000000008701001A9919001AB2
:10004000BB01001ABB01001ABB01001A000000002E
:10005000BB01001ABB01001ABB01001ABB01001A48
:100060009D1A001ABB01001ABB01001ABB01001A3D
:10007000BB01001ABB01001ABB01001ABB01001A28
:10008000BB01001ABB01001ABB01001ABB01001A18
:10009000BB01001ABB01001ABB01001ABB01001A08
:1000A000BB01001ABB01001ABB01001ABB01001AF8
:1000B000BB01001ABB01001ABB01001ABB01001AE8
:1000C000BB01001ABB01001ABB01001ABB01001AD8
:1000D000BB01001ABB01001ABB01001ABB01001AC8
:1000E000BB01001ABB01001ABB01001ABB01001AB8
:1000F00000000000BB01001ABB01001ABB01001A7E
:1001000000000000BB01001ABB01001ABB01001A6D
:10011000BB01001A9054001A00000010880800006B
:100120009054001A00000810000000009054001ABB
:1001300000000020000000009054001A0080002001
:10014000000000009054001A00C0002000000000D1
:1001500088080010EC0100000000081000000000FA
:1001600000000020000000000080002000000000CF
:1001700000C0002000000000FEE7FEE7FEE7FEE70B
:10018000FEE7FEE7FEE7FEE7FEE7002393420AD222
:1001900010B450F8044B41F8044B04339342F8D3A5
:1001A0005DF8044B7047704700238B4204D2002255
:1001B00040F8042B0433F8E77047FEE7FFFFFFFF2A
:1001C000FFFFFFFFFFFFFFFFFFFFFFFFFFFFFFFF3F
:1001D000FFFFFFFFFFFFFFFFFFFFFFFFFFFFFFFF2F
:1001E000FFFFFFFFFFFFFFFFFFFFFFFFFFFFFFFF1F
:1001F000FFFFFFFFFFFFFFFFFFFFFFFFFFFFFFFF0F
:10020000FFFFFFFFFFFFFFFFFFFFFFFFFFFFFFFFFE
:10021000FFFFFFFFFFFFFFFFFFFFFFFFFFFFFFFFEE
:10022000FFFFFFFFFFFFFFFFFFFFFFFFFFFFFFFFDE
:10023000FFFFFFFFFFFFFFFFFFFFFFFFFFFFFFFFCE
:10024000FFFFFFFFFFFFFFFFFFFFFFFFFFFFFFFFBE
:10025000FFFFFFFFFFFFFFFFFFFFFFFFFFFFFFFFAE
:10026000FFFFFFFFFFFFFFFFFFFFFFFFFFFFFFFF9E
:10027000FFFFFFFFFFFFFFFFFFFFFFFFFFFFFFFF8E
:10028000FFFFFFFFFFFFFFFFFFFFFFFFFFFFFFFF7E
:10029000FFFFFFFFFFFFFFFFFFFFFFFFFFFFFFFF6E
:1002A000FFFFFFFFFFFFFFFFFFFFFFFFFFFFFFFF5E
:1002B000FFFFFFFFFFFFFFFFFFFFFFFFFFFFFFFF4E
:1002C000FFFFFFFFFFFFFFFFFFFFFFFFFFFFFFFF3E
:1002D000FFFFFFFFFFFFFFFFFFFFFFFFFFFFFFFF2E
:1002E000FFFFFFFFFFFFFFFFFFFFFFFFFFFFFFFF1E
:1002F000FFFFFFFFFFFFFFFFFFFFFFFFFFFFFFFF0E
:1003000008B501F0F1FE13A3D3E9002301F056FF75
:1003100000220D4B01F09CFD02F0EAF900EE100AFC
:10032000B5EEC00AF1EE10FA09D4DFED087AB4EEAA
:10033000E70AF1EE10FA01DDB0EE670A08BD9FEDA5
:10034000040AFBE7AFF30080000064400000C842ED
:10035000000000009A9999999999C9BF70B5CAB0DF
:1003600001F0AAFB4FF4E131052001F041FB002030
:1003700001F03AFA002349930B2001F025FD434B8D
:100380004893434B479362E00021292001F0C2F9D2
:100390000121282001F0BEF9479801F0B7FE41EC99
:1003A000100B01A9052002F075FB489801F0AEFE84
:1003B00041EC100B03A9052002F06CFB354E2846DA
:1003C00001F0A4FE41EC100B3146052002F062FB67
:1003D000204601F09BFE41EC100B05A9052002F020
:1003E00059FB07AC03A9204603F09CF8204603F014
:1003F00027F9294B1D88255201A9204603F092F8C0
:10040000204603F01DF925523146204603F08AF8B4
:10041000204603F015F9255205A9204603F082F87D
:10042000204603F00DF922181C4B19889B782152A5
:1004300093702146052001F026FBFF220021204673
:1004400003F014F842F21070002101F09DFB00202F
:1004500001F026FA499000F0ACF800F0C3F810EE75
:10046000104A4998FFF74CFF10EE105A47A948A8C8
:1004700001F0B2FC002887D00121292001F04AF9BF
:100480000021282001F046F986E700BF9A99993E9D
:100490000000CC4188080010A850001AAC50001A87
:1004A00008B500210C2001F05FF808BD08B5012156
:1004B0000C2001F059F808BD08B5FFF7F7FF00213F
:1004C0000C2001F027F94FF49670002101F02EFB6B
:1004D000FFF7E6FF3220002101F028FB0C2001F09D
:1004E0004EF9012805D0FA20002101F01FFB002061
:1004F00008BD0249032001F0C6FAFEE7B050001A19
:1005000038B50024254605E02820002101F00EFB27
:100510000134E4B2072C19D8FFF7C8FF00210C20E2
:1005200001F0F8F80220002101F000FBFFF7B8FF0E
:100530000620002101F0FAFA0C2001F020F9012830
:10054000E2D10123A3401D43EDB2DDE7284638BDCB
:1005500038B50546FFF7AAFF002411E0FFF7A6FF14
:1005600000210C2001F0D6F82820002101F0DEFA4D
:10057000FFF796FF0220002101F0D8FA0134E4B21F
:10058000072C15D845FA04F313F0010FE6D0FFF756
:100590008DFF00210C2001F0BDF80220002101F0A8
:1005A000C5FAFFF77DFF2820002101F0BFFAE5E73B
:1005B00038BD10B5FFF780FFCC20FFF7C9FF4420FE
:1005C000FFF7C6FF4FF47A70002101F0DDFAFFF764
:1005D00073FF0446CC20FFF7BBFFBE20FFF7B8FF38
:1005E000204610BD10B5FFF78BFF0446FFF788FFCC
:1005F00044EA002007EE900AB8EEE70ADFED027A3F
:1006000020EE270A10BD00BF0000803D7047FFFFAD
:1006100010B572B6194B1A4A1A600433194A1A6097
:10062000002305E0184A4FF0FF3142F82310013350
:10063000072BF7D962B6154B07E003F10C049A6853
:1006400059681868FFF7A1FD2346114A9342F4D375
:1006500006E01C46596854F8080BFFF7A5FD234631
:100660000C4A9342F5D300F03BFF02F085FBFFF705
:10067000CDFFFFF773FE30BFFDE700BF003105403F
:100680000010DF10FFF7DF0180E200E01401001A24
:100690005001001A7801001A70477047054B1B681B
:1006A00023B1044B1868014419607047014B024A9A
:1006B0001A60F6E794080010740A001000231C2B3F
:1006C00012D810B4094A02EB830112F823404A7889
:1006D000488802EB4412064941F8220001331C2BE2
:1006E000F0D95DF8044B7047704700BFC850001A3E
:1006F0000060084010B5174AD2F8203123F4704347
:1007000043F41043C2F82031D2F8243123F470436B
:1007100043F41043C2F8243101220F49062000F0AF
:100720007BFA00244CB10B4B5A6822F00C025A6041
:100730005A6842F003025A6010BD084800EB840179
:1007400001238A78497810F8240000F03DFD013437
:10075000E8E700BF0030044000CB280CC450001A6A
:1007600008B5FFF7ABFFFFF7C5FF08BD0022052A5C
:1007700019D870B40C4911F8125001EB42014C78B1
:100780000A4B05F5006653F826100120A0400143EE
:1007900043F8261003EB4513002119550132052AB1
:1007A000E8D970BC704770474851001A00400F40AC
:1007B0000023032B16D830B40B4911F8132001EB9A
:1007C00043014D78094C02F5006254F822100120D3
:1007D000A84021EA000144F822100133032BEBD991
:1007E00030BC7047704700BF4051001A00400F40B6
:1007F0000023082B16D830B40B4911F8132001EB55
:1008000043014D78094C02F5006254F82210012092
:10081000A84021EA000144F822100133082BEBD94B
:1008200030BC7047704700BF5451001A00400F4061
:1008300010B582B0084C6946204600F03DF9074AE1
:100840006946204600F0A3F900226946204600F0E0
:10085000B7F902B010BD00BF00300E40801A06008C
:1008600010B50B4C204600F095F8636823F00403A4
:100870006360236823F0FF0343F007032360054907
:10088000204600F068F8636843F00203636010BD1F
:1008900000500C40A086010008B5002000F0A6F82A
:1008A000044B40F60802C3F8842C0349002000F0F2
:1008B000AFF808BD0060084040420F0010B5074C7B
:1008C000204600F055FD4FF4E131204600F09AFD3E
:1008D0000323E3600123E36510BD00BF00100C405B
:1008E00008B5FFF7EBFF094800F0AEF8FFF780FF0F
:1008F000FFF79EFFFFF7B4FFFFF7CEFFFFF736FFCE
:10090000FFF756FF00F034FA08BD00BF00400F406B
:1009100008B5FFF7D3FF08BD034B984201D08320F1
:100920007047A520704700BF00500C40044B984210
:1009300002D040F2022070474FF4F170704700BFC0
:1009400000500C40036823F47F43090289B2194325
:1009500001600261704770B506460D46FFF7E6FF7D
:1009600000F0CAFC02224FF0FF33002100E02146D4
:10097000AB420BD94C1C02FB04F3B0FBF3F39D42DA
:10098000F6D2FF2CF3D902320021F1E73046FFF70F
:10099000D9FF70BD10B50446FFF7BEFF00F078FC2C
:1009A0002046FFF7C3FF00F073FC636823F00403E5
:1009B0006360236823F0FF0343F0070323600249C9
:1009C0002046FFF7C8FF10BDA0860100012909D10C
:1009D000C0EBC0008200044B13441A69137DDBB2E4
:1009E000042BFBD0704700BF0000001070B5054617
:1009F000064EC400221A93003344988800F048FC45
:100A0000641BA300F3586C229A6170BD00000010B3
:100A10002DE9F0410C460B4EC5002B1A4FEA830816
:100A200006EB0803988800F067FCB0FBF4F056F87A
:100A3000083042081A6156F808301A69801A58615D
:100A4000BDE8F081000000107047FFFF034B9842A3
:100A500001D0032070470420704700BF00400E40C3
:100A600070B50D4614461E46FFF7F0FF00F044FC3B
:100A700055B104FB06F404EB40006400B0FBF4F055
:100A8000C0B20138C0B270BD04EB840304EB430470
:100A9000F1E7036823F0E06343EA01610160704716
:100AA000043150F82130002B04DAC3F3891313808A
:100AB000012070470020704738B505460C46FFF707
:100AC000C5FF01231A46194600F0C4FB0021E96066
:100AD000084A2260217161710B232846FFF7C0FF8D
:100AE000000240F400132079400400F46020184311
:100AF000286038BD801A060008B54FF48072C260C5
:100B000000220260FFF7A2FF00F0DCFB08BD08B581
:100B1000FFF7C6FF08BD012A0AD01AB1022A0FD07A
:100B200000207047006BC84000F00100C0B2704761
:100B30000831C9B2006BC84000F00100C0B2704774
:100B4000036B1B0C14BF012000207047012A06D044
:100B5000C36801228A4023EA0203C360704710B4CD
:100B6000C4688A401443C4605DF8044B704708B5FC
:100B7000012904D932B1036843F000630360FFF731
:100B800088FF08BD036823F000630360F7E770B5D2
:100B900005460E46046824F46F2424F470640A6049
:100BA0000B79C3F10B03DBB24979FFF759FF44EA34
:100BB000002033795B0403F4602303432B6070BD92
:100BC00008B50A710A68FFF7E2FF08BD012A0AD0DA
:100BD000026822F0E0620260036801228A4023EA90
:100BE00002030360704710B404688A401443046031
:100BF0005DF8044B704738B504460D460021FFF7F9
:100C000048FF25B9236823F48033236038BD236867
:100C100043F480332360F9E770B58AB005460E4689
:100C200014464CF250330993062818D000230122B1
:100C30002946042000F0C8FA4A4A536C43F00103E5
:100C400053648DF8085001A9304600F035FA464B40
:100C50009E4216D9019B13F0400F03D0FEE700F02F
:100C60008DF9E3E713F0800F05D023F080030193A3
:100C70000025012607E0049B01330493012500268B
:100C800001E000252E469DF80820019B43EA0263FF
:100C9000059A43EA0243039A43EA0233049A43EA79
:100CA000022343F400632F4A53642E4B1B6C13F052
:100CB000010FFAD0002301220921042000F084FA58
:100CC00006B34CF250330993099B5A1E0992002B2C
:100CD000FAD1019B43F0800301939DF8082043EA79
:100CE0000263059A43EA0243039A43EA0233049AF1
:100CF00043EA022343F400631A4A5364002C2ED1C2
:100D00000AB070BD002DF9D04CF250330993099B05
:100D10005A1E0992002BFAD1049B5A1E04929DF888
:100D20000810019B43EA0163059943EA01430399D3
:100D300043EA013343EA022343F40063094A53645C
:100D4000DCE70A4800EB8401CB788A78497810F810
:100D5000240000F039FA0134112CF2D9D0E7002434
:100D6000FAE700BF0000054080778E066C51001A3C
:100D700008B5692000F0C0FA014B186008BD00BF3B
:100D8000400A0010F0B40B6813F0800F02D023F07B
:100D900040030B60074601253AE04B6903FB02F371
:100DA000B3FBF5F31CE01C46B0EB040C27D46745FD
:100DB00006D98D60771CCF600A618C61CB61674674
:100DC0000132B2F5807F1DDC0C6814F0400FE4D0D6
:100DD000731C02FA03FC4B6903FB0CF3B3FBF5F342
:100DE000DFF838C06345EBD9DFF834C0634509D874
:100DF00014F0800FD7D1741C23FA04F4D4E7CCF19B
:100E0000000CD4E70136032E01DC0122D9E70135BD
:100E1000042D01DC0026F6E7F0BC7047FF5E4C09AC
:100E200000D01213F0B599B005460C465C220021A3
:100E300001A802F01BFB80230093636905932379CB
:100E40008DF8043069462846FFF79CFF069BAB42AD
:100E500027D0EB1A2ED41E46109B23F0400310938C
:100E60006369159323798DF8443010A92846FFF75C
:100E700089FF169BAB421FD0EB1A25D41F462B4B84
:100E80009D4223D90E9BED1A33D4AE423BDCBE42C9
:100E900031DC6D460FCD0FC495E80F0084E80F00DC
:100EA00006E06D460FCD0FC495E80F0084E80F00F3
:100EB00019B0F0BD5B42CEE710AD0FCD0FC495E881
:100EC0000F0084E80F00F3E75B42D7E74023089365
:100ED00063690D9308A92846FFF754FF0E9BAB42A8
:100EE000D0D108AD0FCD0FC495E80F0084E80F00F6
:100EF000DEE76D42C9E710AD0FCD0FC495E80F00D6
:100F000084E80F00D4E7AF4207DB08AD0FCD0FC474
:100F100095E80F0084E80F00CAE710AD0FCD0FC4AD
:100F200095E80F0084E80F00C2E700BF80778E06C7
:100F300030B4054600231C2000E001331C2818D1E2
:100F400003EB430251000C4A0A441479844210D046
:100F500003EB43014A0008498A5AAA42EDD803EB41
:100F600043025100044A0A445288AA42E5D320466B
:100F7000E4E730BC704700BFC051001A82B04FF4A4
:100F80007A7301930D4A936923F0020192698A42B0
:100F900001D00A4A916123F00303094A1168094A02
:100FA000914201D943F00403044A9361019B5A1E04
:100FB0000192002BFAD102B0704700BF000005403B
:100FC0006851001AFF2C31011230054B53F82000F4
:100FD00010F0010F02D1C0F3046070471120704778
:100FE0000000054000F11202034B53F82220034B8E
:100FF000185C00EA9200704700000540B851001AE2
:1010000008B510280AD8DFE800F0440B0D182109B4
:1010100024272A2D09093034383C400000203AE0CA
:101020001E4838E01E4BD3F82C3103F00703042B85
:1010300001D01C482FE000202DE0194BD3F82C31B3
:1010400003F00703042B27D0164824E0164B18683A
:1010500021E0164B18681EE0154B18681BE0144B76
:10106000586818E000F068F815E0002100F09AF8E0
:1010700011E0012100F096F80DE0022100F092F855
:1010800009E0032100F08EF805E0042100F08AF861
:1010900001E04FF4004008BD0648FCE7001BB70024
:1010A0000030044040787D013C51001A6851001A1C
:1010B0009808001080F0FA0238B505460C46087909
:1010C000FFF79EFF6061194B2B44194A934221D8C8
:1010D00018B3802323600023A360E360B5FBF0F323
:1010E0002361144A954203D903FB00F0A84207D0BC
:1010F00021462846FFF796FEA3688BB1013BA3600B
:10110000236983B1E2680AB1013AE260013B2361DD
:10111000002038BD4FF0FF30FBE74FF0FF30F8E71D
:101120004FF0FF30F5E74FF0FF30F2E7103A6BFF7A
:101130001005940BFF5E4C0930B583B0174D6C6CF5
:10114000C4F30360FFF75CFF154B1B6801932B6C26
:1011500013F0010F20D0C4F30743C4F30132C4F3EA
:101160000121C4F38015013301320DF1080C6144F3
:1011700011F8041C14F0800F08D13DB94900B3FBED
:10118000F1F3B0FBF2F000FB03F003E0B0FBF2F090
:1011900003FB00F003B030BD0020FBE7000005407A
:1011A000B451001A38B50C460846FFF70DFF054646
:1011B0002046FFF717FF04462846FFF721FF0134BA
:1011C000B0FBF4F038BDFFFF30B400F11604A4000A
:1011D00004F1804404F5A02464681B2813D8112965
:1011E0001AD00E4D25400AB145F400650BB145F00B
:1011F000010545EA01651630800000F1804000F5E8
:10120000A020456008E044F001041630800000F1A1
:10121000804000F5A020446030BC7047FEF7FFE03E
:101220001B280CD81630800000F1804000F5A0206B
:10123000406810F0010F04D1C0F304607047112022
:1012400070471120704708B5FFF7EAFFFFF7D8FE97
:1012500008BDFFFF71B901210AB141F00401022B61
:101260000AD0B0F5A17F0AD3A0F59170064B43F8E0
:10127000301070470321EFE741F02001F1E7203003
:10128000024B43F830107047002005400010054025
:10129000B0F5A17F09D3094AA0F5917052F830301A
:1012A00043F0010342F830307047054A203052F8CD
:1012B000303043F0010342F83030704700200540E1
:1012C00000100540B0F5A17F09D3094AA0F591703F
:1012D00052F8303023F0010342F830307047054AAD
:1012E000203052F8303023F0010342F8303070479C
:1012F000002005400010054010B5B0F5A17F09D3CE
:10130000A0F591730D4A52F8334014F0010F07D144
:10131000002010BD00F12003094A52F83340F4E7E1
:10132000FFF706FEFFF78FFF14F0E00F03D1012354
:10133000B0FBF3F0EDE70223FAE700BF0020054021
:1013400000100540094B984209D003F5805398429C
:1013500007D0A3F58023984205D0002070470220D3
:101360007047032070470120704700BF00100C40F9
:1013700030B583B00446FFF7E5FF01231A4619464E
:101380000E4D35F81000FFF765FF0723A36000231B
:10139000E3656360E3602362E36463652365084B90
:1013A0009C4206D00323E3601023A362019B03B099
:1013B00030BD00232361A3690193F3E73452001A7F
:1013C0000020084038B505460C46FFF7BBFF0C4B24
:1013D00033F81000FFF790FF2301B0FBF3F3D9B20D
:1013E000EA6842F08002EA602960C3F307226A607B
:1013F000EA6822F08002EA60B0FBF3F0000938BD31
:101400002C52001A2DE9F04F83B001908846FFF767
:1014100099FF324B33F81000FFF76EFF06464FF08E
:10142000FF3701244FF0000BA246D9462AE0424282
:101430004B1C17E00AB31746AB46A2469946013546
:10144000AC421ED933093007A4FB000104FB031191
:10145000621908FB02F2002301F09AF902460B46DA
:101460000028E4DB9742EAD3002BE8D0190CE6D140
:10147000022BDFD8002DDDD0E1E71746AB46A246B0
:10148000994601341FB10F2C01D80025D8E7B9F1D6
:10149000000F1ED0019A1146D36843F08003D36039
:1014A0005FFA89F31360C9F307235360D36823F00D
:1014B0008003D3604FEA0A13DBB20BF00F02134331
:1014C0008B6233090AFB03F3DA4409FB0AF9B3FB25
:1014D000F9F9484603B0BDE8F08F00BF2C52001A5E
:1014E00008B50B4A0B4B9A6003F50C731B6903F4A8
:1014F0007F63202B04D0FFF733F9FFF7F1F908BD24
:10150000044AD2F8883043F47003C2F88830F2E716
:101510000000001A00ED00E0044B1860044A136854
:1015200043F0010313600120704700BF3800001032
:10153000001000E030B40B4D00EB80002C18285652
:10154000087094F90110117094F902201A7094F93E
:101550000320029B1A7094F90420039B1A7030BC7C
:10156000704700BF3C52001A10F1020F00F0C78014
:10157000B0F1FF3F00F0C58070B584B00C46002389
:101580008DF80F308DF80E308DF80D308DF80C3051
:101590008DF80B300DF10B03019303AB00930DF1AC
:1015A0000D030DF10E020DF10F01FFF7C3FF052C26
:1015B00000F2A980DFE804F009812745630353485E
:1015C000FFF742FA012004B070BD9DF80F109DF89E
:1015D0000E309DF80D2042F0D00203EB41134C4930
:1015E00041F823209DF80C309DF90B20012000FAD2
:1015F00002F1464C03F5006354F8232022EA01026D
:1016000044F82320DFE79DF80F109DF80E309DF879
:101610000D2042F0C00203EB41133D4941F8232065
:101620009DF80C309DF90B20012000FA02F1374C97
:1016300003F5006354F8232022EA010244F8232032
:10164000C1E79DF80F109DF80E309DF80D2042F077
:10165000D80203EB41132E4941F823209DF80C30AA
:101660009DF90B20012000FA02F1284C03F50063DC
:1016700054F8232022EA010244F82320A3E79DF82E
:101680000F109DF80E309DF80D2042F0C80203EBBC
:1016900041131F4941F823209DF80C309DF90B2080
:1016A000012000FA02F1194C03F5006354F82320DD
:1016B00022EA010244F8232085E79DF80F109DF8E7
:1016C0000E309DF80D2042F0D00203EB411310497B
:1016D00041F823209DF80C409DF90B20012000FAD1
:1016E00002F10A4B04F5006553F82560314343F8D5
:1016F0002510D2B203EB44130021995463E7002074
:1017000070470020704700205DE700BF00400F4099
:101710000060084010F1020F2DD0B0F1FF3F2CD037
:1017200010B584B00C4600238DF80F308DF80E30C4
:101730008DF80D308DF80C308DF80B300DF10B035A
:10174000019303AB00930DF10D030DF10E020DF1AA
:101750000F01FFF7EFFE9DF80C309DF80B20211CC8
:1017600018BF01215B0103F1402303F57023995455
:10177000012004B010BD002070470020704710F118
:10178000020F2CD0B0F1FF3F2BD000B585B0002365
:101790008DF80F308DF80E308DF80D308DF80C303F
:1017A0008DF80B300DF10B03019303AB00930DF19A
:1017B0000D030DF10E020DF10F01FFF7BBFE9DF9B8
:1017C0000C309DF80B205B0103F1402303F57023DF
:1017D000985C003018BF012005B05DF804FB0120C3
:1017E000704700207047FFFF30B583B018B1012863
:1017F0004AD003B030BD264B6D4693E8030085E820
:101800000300244C29462046FFF756F900212046C4
:10181000FFF7F1F9204A29462046FFF7B8F90022E0
:1018200001212046FFF7D2F9002201212046FFF7CF
:101830008DF9002202212046FFF7C8F9002202217B
:101840002046FFF783F9002203212046FFF7BEF967
:10185000002203212046FFF779F9002204212046C7
:10186000FFF7B4F9002204212046FFF76FF90B4A75
:10187000D2F8883C43F01003C2F8883C00220521CE
:101880002046FFF763F9B4E70248FFF735F9B0E700
:101890002453001A00300E40400D03000060084041
:1018A00070B582B00130C4B20026ADF80660114DAB
:1018B000012221462846FFF789F9324601212846B0
:1018C000FFF755F9002221460A48FFF724F90128BD
:1018D000F8D1084D0DF1060221462846FFF717F909
:1018E000002221462846FFF771F9BDF8060002B034
:1018F00070BD00BF00300E40014BD3E900017047BE
:10190000A808001018B1044B07221A607047024B58
:1019100000221A60704700BF10E000E038B550EABE
:1019200001042AD010F1FF3241F1FF33002B08BF30
:10193000322A27D2144BC3E90001144B1B68A3FBC6
:10194000004503FB01554FF47A72002320462946D7
:1019500000F01EFF0138B0F1807F09D20C4B5860B7
:101960000C4AE02182F8231000229A6007221A60B4
:101970000120FFF7C7FF012038BD0020FFF7C2FF9D
:101980000020F9E70020F7E740000010400A0010AF
:1019900010E000E000ED00E008B5074A1368516868
:1019A000013341F1000113605160044B1B6813B116
:1019B000034A1068984708BDA8080010B008001036
:1019C000A008001000EB40008300034AD358586978
:1019D00000F02000704700BF2C53001A00EB4000BD
:1019E0008300024AD3581960704700BF2C53001A75
:1019F0002DE9F84380468946194C45002A18930082
:101A0000E618E7583846FFF7B3FC49463846FFF773
:101A1000D9FC0723BB603B680123FB6530797379F0
:101A2000B27942F018020F4903EB401341F823202A
:101A3000F079337A727A42F0D00203EB401341F826
:101A40002320B8F1010F01D0BDE8F883064AD36C1A
:101A500043F03003D3641A22C1F80823F4E700BF2F
:101A60002C53001A006008400010084038B50446A6
:101A70000D462046FFF7A6FF0028FAD0294620464B
:101A8000FFF7ACFF38BD38B505460C46217821B1CB
:101A90002846FFF7EBFF0134F8E738BD08B5044BE3
:101AA0001B681B68DB68034A1068984708BD00BFC5
:101AB000440A0010B408001008B5FFF759F91A4B92
:101AC0001868FFF729FD01200021FFF727FF0521F6
:101AD0000020FFF749FD00212420FFF745FD0021EC
:101AE0002520FFF741FD00212620FFF73DFD0021C5
:101AF0002720FFF739FD01212820FFF735FD0121BF
:101B00002920FFF731FD01212A20FFF72DFD0121BA
:101B10002B20FFF729FD01212C20FFF725FD0121B6
:101B20002D20FFF721FD08BD400A001030B585B01B
:101B3000031841EB0102181842EB01010B0143EAC3
:101B400010730201801843EB01018B0043EA90738C
:101B50008200104619460A22002300F019FECDE942
:101B60000001DDE90023CDE90223DDE9022313436F
:101B700008D0DDE9022312F1FF3443F1FF35CDE94E
:101B80000245F2E705B030BD2DE9F84380468946AD
:101B9000FFF7B2FE06460F46FFF7AEFE841B61EB71
:101BA0000705064BD3E900234046494600F0F0FD07
:101BB0008D4208BF8442EFD3BDE8F8834000001097
:101BC00030B1064A1060054B1A68054B1A60704721
:101BD000024B4FF47A721A60F5E700BF4C0A00100E
:101BE000480A001008B5064B1B6823B1013B044AA4
:101BF0001360012008BD0020FFF7E2FF0020F9E795
:101C0000480A0010254B19685868022300E0013388
:101C1000502B08DC214A52F823208A4239D28242D2
:101C2000F5D30020704770B40021022617E01C484D
:101C3000425C520042F0010242540233AB420CDAE1
:101C4000164A52F823005C1C52F824209042EED928
:101C50001348425C52004254EFE710360131042928
:101C600006DC0F4B00225A5406F10F053346E5E718
:101C70000B4A137851780B44917851FA83F3D17859
:101C800051FA83F3DBB212799A4204D1012070BC7D
:101C90007047002070470020F9E700BFC40800101B
:101CA000BC08001008B50221024B93F90000FFF7B1
:101CB0005BFC08BDB808001010B5064C012194F972
:101CC0000000FFF751FC002194F90000FFF722FD0E
:101CD00010BD00BFB808001008B5034B93F9000011
:101CE000FFF74DFD08BD00BFB8080010F8B5FFF7BD
:101CF000E3FF14200021FFF747FFFFF7D3FF002683
:101D000035463746344642E005243DE04FF47A70CC
:101D1000FFF756FF03E0FFF765FF00284AD09CBBA2
:101D2000FFF7DAFF0028F6D10124F4E70020FFF7DF
:101D300047FF012C28D10135FFF7CEFF012805D040
:101D4000FFF750FF0028F4D10324F2E71D4B43F8BE
:101D50002650013600250224F2E70020FFF730FF6D
:101D600003E0FFF73FFF00B90324022C0CD101353B
:101D7000FFF7B2FF0028F4D1124B43F8265001368A
:101D800000250124EDE70127512E00D905249FB934
:101D9000052CB9D801A353F824F000BF0D1D001A7B
:101DA0002D1D001A5B1D001A091D001A091D001ABD
:101DB000871D001A0324E7E7522E00D0002738467B
:101DC000F8BD00BFC408001008B5024B1860FFF74B
:101DD00069FF08BDB808001038B505460C46FFF786
:101DE00085FF012801D0002038BDFFF70BFF012837
:101DF00001D00020F8E7124B1A7807EE902AF8EE8F
:101E0000677A5A7807EE102AB8EE477AF2EE046A3B
:101E100087EE266A77EE867AC5ED007A9A7807EE25
:101E2000902AF8EE677ADB7807EE103AB8EE477A38
:101E300087EE266A77EE867AC4ED007AD4E700BF93
:101E4000BC08001081F0004102E000BF83F00043B5
:101E500030B54FEA41044FEA430594EA050F08BF45
:101E600090EA020F1FBF54EA000C55EA020C7FEA09
:101E7000645C7FEA655C00F0E2804FEA5454D4EB86
:101E80005555B8BF6D420CDD2C4480EA020281EA50
:101E9000030382EA000083EA010180EA020281EA88
:101EA0000303362D88BF30BD11F0004F4FEA0131DA
:101EB0004FF4801C4CEA113102D0404261EB4101E9
:101EC00013F0004F4FEA03334CEA133302D052426F
:101ED00063EB430394EA050F00F0A780A4F101042B
:101EE000D5F1200E0DDB02FA0EFC22FA05F2801865
:101EF00041F1000103FA0EF2801843FA05F359414B
:101F00000EE0A5F120050EF1200E012A03FA0EFCC9
:101F100028BF4CF0020C43FA05F3C01851EBE371F3
:101F200001F0004507D54FF0000EDCF1000C7EEB10
:101F300000006EEB0101B1F5801F1BD3B1F5001F4E
:101F40000CD349085FEA30004FEA3C0C04F101046D
:101F50004FEA445212F5800F80F09A80BCF1004F96
:101F600008BF5FEA500C50F1000041EB045141EA18
:101F7000050130BD5FEA4C0C404141EB010111F419
:101F8000801FA4F10104E9D191F0000F04BF0146C4
:101F90000020B1FA81F308BF2033A3F10B03B3F1A2
:101FA00020020CDA0C3208DD02F1140CC2F10C0232
:101FB00001FA0CF021FA02F10CE002F11402D8BF90
:101FC000C2F1200C01FA02F120FA0CFCDCBF41EA5C
:101FD0000C019040E41AA2BF01EB0451294330BD2B
:101FE0006FEA04041F3C1CDA0C340EDC04F1140408
:101FF000C4F1200220FA04F001FA02F340EA0300DF
:1020000021FA04F345EA030130BDC4F10C04C4F124
:10201000200220FA02F001FA04F340EA0300294604
:1020200030BD21FA04F0294630BD94F0000F83F44E
:10203000801306BF81F480110134013D4EE77FEA31
:10204000645C18BF7FEA655C29D094EA050F08BF7D
:1020500090EA020F05D054EA000C04BF194610465E
:1020600030BD91EA030F1EBF0021002030BD5FEAA2
:10207000545C05D14000494128BF41F0004130BDCA
:1020800014F580043CBF01F5801130BD01F000451E
:1020900045F0FE4141F470014FF0000030BD7FEA91
:1020A000645C1ABF194610467FEA655C1CBF0B468C
:1020B000024650EA013406BF52EA033591EA030FA3
:1020C00041F4002130BD00BF90F0000F04BF00219B
:1020D000704730B54FF4806404F132044FF00005CE
:1020E0004FF0000150E700BF90F0000F04BF002147
:1020F000704730B54FF4806404F1320410F00045AD
:1021000048BF40424FF000013EE700BF42004FEAA7
:10211000E2014FEA31014FEA02701FBF12F07F4324
:1021200093F07F4F81F06051704732F07F4208BFDB
:10213000704793F07F4F04BF41F40021704730B5E2
:102140004FF4607401F0004521F000411CE700BF2E
:1021500050EA010208BF704730B54FF000050AE0B1
:1021600050EA010208BF704730B511F0004502D5B2
:10217000404261EB41014FF4806404F132045FEAB4
:10218000915C3FF4D8AE4FF003025FEADC0C18BF5D
:1021900003325FEADC0C18BF033202EBDC02C2F14F
:1021A000200300FA03FC20FA02F001FA03FE40EAE1
:1021B0000E0021FA02F11444BDE600BF70B54FF0E5
:1021C000FF0C4CF4E06C1CEA11541DBF1CEA1355C3
:1021D00094EA0C0F95EA0C0F00F0DEF82C4481EA2B
:1021E000030621EA4C5123EA4C5350EA013518BF4B
:1021F00052EA033541F4801143F4801338D0A0FB38
:1022000002CE4FF00005E1FB02E506F00042E0FBE4
:1022100003E54FF00006E1FB03569CF0000F18BFEA
:102220004EF0010EA4F1FF04B6F5007F64F5407492
:1022300004D25FEA4E0E6D4146EB060642EAC62125
:1022400041EA55514FEAC52040EA5E504FEACE2E92
:10225000B4F1FD0C88BFBCF5E06F1ED8BEF1004F95
:1022600008BF5FEA500E50F1000041EB045170BD11
:1022700006F0004646EA010140EA020081EA030155
:10228000B4EB5C04C2BFD4EB0C0541EA045170BD51
:1022900041F480114FF0000E013C00F3AB8014F1CB
:1022A000360FDEBF002001F0004170BDC4F1000414
:1022B000203C35DA0C341BDC04F11404C4F1200595
:1022C00000FA05F320FA04F001FA05F240EA0200F0
:1022D00001F0004221F0004110EBD37021FA04F626
:1022E00042EB06015EEA430E08BF20EAD37070BDE0
:1022F000C4F10C04C4F1200500FA04F320FA05F03F
:1023000001FA04F240EA020001F0004110EBD37040
:1023100041F100015EEA430E08BF20EAD37070BDB0
:10232000C4F1200500FA05F24EEA020E20FA04F389
:1023300001FA05F243EA020321FA04F001F0004138
:1023400021FA04F220EA020000EBD3705EEA430EA9
:1023500008BF20EAD37070BD94F0000F0FD101F0D8
:102360000046400041EB010111F4801F08BF013C11
:10237000F7D041EA060195F0000F18BF704703F04F
:102380000046520043EB030313F4801F08BF013DD6
:10239000F7D043EA0603704794EA0C0F0CEA135592
:1023A00018BF95EA0C0F0CD050EA410618BF52EA4C
:1023B0004306D1D181EA030101F000414FF0000052
:1023C00070BD50EA410606BF1046194652EA430660
:1023D00019D094EA0C0F02D150EA013613D195EAD4
:1023E0000C0F05D152EA03361CBF104619460AD11C
:1023F00081EA030101F0004141F0FE4141F4700126
:102400004FF0000070BD41F0FE4141F4780170BD15
:1024100070B54FF0FF0C4CF4E06C1CEA11541DBF7A
:102420001CEA135594EA0C0F95EA0C0F00F0A7F87C
:10243000A4EB050481EA030E52EA03354FEA0131A9
:1024400000F088804FEA03334FF0805545EA1313BC
:1024500043EA12634FEA022245EA111545EA106584
:102460004FEA00260EF000419D4208BF964244F11B
:10247000FD0404F5407402D25B084FEA3202B61A3A
:1024800065EB03055B084FEA32024FF480104FF40E
:10249000002CB6EB020E75EB030E22BFB61A754682
:1024A00040EA0C005B084FEA3202B6EB020E75EB15
:1024B000030E22BFB61A754640EA5C005B084FEA7D
:1024C0003202B6EB020E75EB030E22BFB61A75464A
:1024D00040EA9C005B084FEA3202B6EB020E75EB55
:1024E000030E22BFB61A754640EADC0055EA060E16
:1024F00018D04FEA051545EA16754FEA06164FEA59
:10250000C30343EA52734FEAC2025FEA1C1CC0D104
:1025100011F4801F0BD141EA00014FF000004FF091
:10252000004CB6E711F4801F04BF01430020B4F152
:10253000FD0C88BFBCF5E06F3FF6AFAEB5EB030C0A
:1025400004BFB6EB020C5FEA500C50F1000041EB07
:10255000045170BD0EF0004E4EEA113114EB5C04D4
:10256000C2BFD4EB0C0541EA045170BD41F48011A7
:102570004FF0000E013C90E645EA060E8DE60CEAAF
:10258000135594EA0C0F08BF95EA0C0F3FF43BAFCC
:1025900094EA0C0F0AD150EA01347FF434AF95EA83
:1025A0000C0F7FF425AF104619462CE795EA0C0F67
:1025B00006D152EA03353FF4FDAE1046194622E734
:1025C00050EA410618BF52EA43067FF4C5AE50EA0E
:1025D00041047FF40DAF52EA43057FF4EBAE12E7FE
:1025E0004FF0FF3C06E000BF4FF0010C02E000BFDF
:1025F0004FF0010C4DF804CD4FEA410C7FEA6C5CC2
:102600004FEA430C18BF7FEA6C5C1BD001B050EA64
:10261000410C0CBF52EA430C91EA030F02BF90EA4F
:10262000020F0020704710F1000F91EA030F58BF0E
:10263000994208BF90422CBFD8176FEAE37040F070
:10264000010070474FEA410C7FEA6C5C02D150EA0E
:10265000013C07D14FEA430C7FEA6C5CD6D152EAC9
:10266000033CD3D05DF8040B704700BF844610468E
:1026700062468C461946634600E000BF01B5FFF78D
:10268000B7FF002848BF10F1000F01BD4DF808ED5D
:10269000FFF7F4FF0CBF012000205DF808FB00BF2E
:1026A0004DF808EDFFF7EAFF34BF012000205DF888
:1026B00008FB00BF4DF808EDFFF7E0FF94BF0120D5
:1026C00000205DF808FB00BF4DF808EDFFF7CEFFD6
:1026D00094BF012000205DF808FB00BF4DF808ED15
:1026E000FFF7C4FF34BF012000205DF808FB00BFE6
:1026F0004FEA4102B2F1E04324BFB3F5001CDCF124
:10270000FE5C0DD901F0004C4FEAC0024CEA50705B
:10271000B2F1004F40EB830008BF20F0010070478A
:1027200011F0804F21D113F13872BCBF01F000408D
:10273000704741F480114FEA5252C2F11802C2F1BF
:10274000200C10FA0CF320FA02F018BF40F0010040
:102750004FEAC1234FEAD32303FA0CFC40EA0C00F2
:1027600023FA02F34FEA4303CCE77FEA625307D12F
:1027700050EA01331EBF4FF0FE4040F44000704766
:1027800001F0004040F0FE4040F40000704700BF00
:1027900053B94AB9002908BF00281CBF4FF0FF31C8
:1027A0004FF0FF3000F074B9ADF1080C6DE904CEC4
:1027B00000F006F8DDF804E0DDE9022304B070471C
:1027C0002DE9F047089E04468846002B40F085809E
:1027D0008A42154648D9B2FA82F24AB1C2F12007BC
:1027E00001FA02F320FA07F7954047EA03089440FC
:1027F0004FEA154E230CB8FBFEF71FFA85FC0EFBC3
:10280000178843EA084307FB0CF1994209D9EB18F2
:1028100007F1FF3080F0E380994240F2E080023F10
:102820002B445B1AA4B2B3FBFEF00EFB103344EA58
:10283000034400FB0CFCA44509D92C1900F1FF331B
:1028400080F0CB80A44540F2C88002382C4440EA96
:102850000740A4EB0C0400271EB1D4400023C6E9B6
:1028600000433946BDE8F087002A53D0B2FA82F21D
:10287000002A40F0B680491B4FEA154E1FFA85F832
:102880000127B1FBFEFC230C0EFB1C1143EA0143A4
:1028900008FB0CF1994207D9EB180CF1FF3002D27A
:1028A000994200F2EC808446591AA3B2B1FBFEF0C3
:1028B0000EFB101443EA044408FB00F8A04507D9B6
:1028C0002C1900F1FF3302D2A04500F2DC8018463B
:1028D000A4EB080440EA0C40BEE78B4208D9002E66
:1028E00078D00027C6E9000138463946BDE8F087B0
:1028F000B3FA83F77FB98B4202D3824200F2BD80E4
:10290000841A61EB030301209846002EA9D0C6E982
:102910000048A6E7FFDEC7F12005BB4022FA05FC10
:102920004CEA030C01FA07F420FA05F821FA05F342
:102930004FEA1C4E48EA0404B3FBFEF9210C0EFBDF
:1029400019331FFA8CF841EA034309FB08FA9A4548
:1029500002FA07F200FA07F10BD91CEB030309F1A5
:10296000FF3080F088809A4540F28580A9F1020905
:102970006344A3EB0A03A4B2B3FBFEF00EFB1033D7
:1029800044EA034400FB08F8A04508D91CEB040402
:1029900000F1FF336BD2A04569D90238644440EAA4
:1029A0000940A4EB0804A0FB02894C45C6464B46EF
:1029B00054D351D0002E69D0B1EB0E0264EB030466
:1029C00004FA05F522FA07F3FC401D43C6E900545A
:1029D000002746E73746304643E7184637E70746BD
:1029E0001FE7C2F1200320FA03F7954001FA02F035
:1029F00021FA03F34FEA154E3843010CB3FBFEF7FF
:102A00001FFA85F80EFB173341EA034107FB08F371
:102A10008B4204FA02F407D9691807F1FF3C28D267
:102A20008B4226D9023F2944CB1A81B2B3FBFEF078
:102A30000EFB103341EA034100FB08F38B4207D938
:102A4000691800F1FF3C10D28B420ED9023829449C
:102A5000C91A40EA074714E74145ABD2B8EB020E6A
:102A600069EB0C0201381346A4E76046F0E718460C
:102A700095E76746D8E781467BE7384645E7ACF1FE
:102A8000020C2B4410E702382C4421E73746E8E6D5
:102A9000704700BF30B52DED028BB0EE408AF0EEEE
:102AA000608A0C46002283B00546002351EC100BCF
:102AB000FFF7F6FD224618B12D2302F8013B013D38
:102AC0000948B0EE480AF0EE680A0023294600687B
:102AD0000093672301F05CFE002814BF204600200D
:102AE00003B0BDEC028B30BD48000010F8B5244F98
:102AF0000C46064600F00AFDBB685D68C4F57E61C1
:102B00000F3125F00305294421F47F6121F00F01E5
:102B1000A1F58054B4F5805F07DB00213046FDF756
:102B2000BDFDBB682B44984204D0304600F0F4FC55
:102B30000020F8BD61423046FDF7B0FD01300DD0F8
:102B4000104BBA6819682D1B45F001053046091B6A
:102B50005560196000F0E0FC0120F8BD002130460E
:102B6000FDF79CFDBA68831A0F2BDEDD064C054984
:102B7000246843F00103001B53600860D5E700BFE1
:102B8000780400100C0A00108008001000295DD0A5
:102B9000F8B50F46064600F0B9FC57F804CC734C64
:102BA0002CF00103A7F10800C218A16855689142F2
:102BB00025F003057FD01CF0010F556002EB0501E5
:102BC00033D157F808EC4968A0EB0E0004F1080C6B
:102BD00087686745734401F0010160D0D0F80CE0CC
:102BE000C7F80CE0CEF80870002900F0898043F0A7
:102BF000010141601360B3F5007F30D2DB08591C3E
:102C000065689A10012393402B4304EBC10254F8EA
:102C100031506360083AC0E9025244F83100E8607C
:102C20003046BDE8F84000F077BC4968C9070ED4CB
:102C30002B4404F1080C9168614543F0010567D00D
:102C4000D268CA6091604560C350D4E7704743F0D2
:102C50000101B3F5007F47F8041C1360CED35A0A74
:102C6000042A42D89A0902F13907FF0002F138011B
:102C7000E519E259083D954251D0516821F0030110
:102C8000994202D992689542F7D1D568C0E90225E8
:102C9000A860D0603046BDE8F84000F03DBC002997
:102CA0005ED1D2E902122B4443F00104CA60916064
:102CB0004460C350B4E71CF0010F2B4407D157F810
:102CC000082C801A1344D0E90212CA609160284A85
:102CD000126843F001019A424160A060A0D8254BE0
:102CE00030461968FFF702FF9AE7142A0AD9542AD6
:102CF0001DD81A0B02F16F07FF0002F16E01B7E752
:102D00002B4498E702F15C07FF0002F15B01AFE79B
:102D1000C4E90400C0E902CC4560C35080E76368A1
:102D20008910012707FA01F119436160AEE7B2F596
:102D3000AA7F06D8DA0B02F17807FF0002F17701CB
:102D400096E740F254518A4206D89A0C02F17D0768
:102D5000FF0002F17C018BE74FF47E777E2187E74D
:102D600043F00101416013605AE700BF780400108E
:102D7000840800103C0A001070B50D4E0D4D761BF6
:102D8000B61006D00024013455F8043B9847A642FB
:102D9000F9D1094E094D761BFDF77FFCB61006D020
:102DA0000024013455F8043B9847A642F9D170BD80
:102DB0008454001A8454001A8854001A8454001A47
:102DC000704700BF704700BF2DE9F04F01F10B05C0
:102DD000162D83B0064623D8102900F2B98000F0E2
:102DE00095FB102518230220BA4F3B44A3F108029B
:102DF0005C68944200F0B980636823F003032344C5
:102E0000D4E902515A68E96042F0010230468D600F
:102E10005A6000F081FB0834204603B0BDE8F08F13
:102E200035F0070500F19480A94200F2918000F08E
:102E30006DFBB5F5FC7FC0F0A2816B0A00F08F80BE
:102E4000042B00F27881AB0903F1390003F1380C4F
:102E5000C300A04F3B44A3F108015C68A14206D126
:102E60000CE0002A80F22781E468A14206D0636862
:102E700023F003035A1B0F2AF3DD60463C69DFF899
:102E800068C264457CD0636823F003035A1B0F2A91
:102E900000F38381002AC7E904CC80F27481B3F582
:102EA000007F80F02581DB08591C7A6857F8318053
:102EB000C4F808804FF0010E9B100EFA03F307EBE5
:102EC000C10E1343AEF10802E2607B6047F8314067
:102ED000C8F80C408210012494409C4256D81C42F1
:102EE00006D120F0030064001C4200F10400FAD077
:102EF00007EBC009CE468046DEF80C309E4507D170
:102F000025E1002A80F22C81DB689E4500F01F81BC
:102F1000596821F003014A1B0F2AF2DDD3E9028E22
:102F20005C1945F001055D6042F00105C8F80CE050
:102F30003046CEF80880C7E90444C4E902CC656095
:102F40005A50009300F0E8FA009B03F1080402E0F5
:102F50000C2333600024204603B0BDE8F08F4FF40B
:102F6000007340204FF03F0C73E7DC68A34208BFBA
:102F700002307FF441AF3C69DFF86CC1644582D117
:102F80007B688210012494409C42A8D9BC68636885
:102F900023F00308A84503D3A8EB05030F2B7ADC25
:102FA000DFF848914C4BD9F800201B6801322B44C4
:102FB00004EB080A00F03C8103F580530F3323F43F
:102FC0007F6B2BF00F0B59463046FDF767FB411C1A
:102FD000024600F0FC80824500F2F7803F4B186803
:102FE00058441860014600F05781D9F80000019359
:102FF00001301BBFA2EB0A0A5144C9F80020196036
:1030000012F0070A00F02081CAF108010A44CAF54B
:10301000805193440831A1EB0B01C1F30B094946E0
:1030200030460092FDF73AFB421CDDE9002300F038
:103030005881801A00EB090B1868BA604BF0010147
:103040004844BC425160186000F03281B8F10F0F63
:1030500040F230816168A8F10C0C2CF0070C01F0F3
:10306000010104EB0C0E41EA0C014FF00508BCF124
:103070000F0F6160CEE9018800F23B815168144670
:10308000174B1A68824238BF1860164B1A68824282
:1030900038BF18609DE0621943F0010345F0010557
:1030A00065603046BA60536000F036FA0834204656
:1030B00003B0BDE8F08F2344E1685A68A56842F088
:1030C0000102E96030468D605A6000F025FA08344C
:1030D00041E700BF780400103C0A00100C0A001001
:1030E000340A0010380A0010800400108008001014
:1030F0005A0A042A63D9142A00F2B78002F15C014B
:10310000C9005B3207EB010E7958AEF1080E8E450F
:1031100000F091804A6822F003029A4202D989683D
:103120008E45F7D1D1F80CE07B68C4E9021ECEF8D9
:103130000840CC60CEE6142B59D9542B00F29D8068
:103140002B0B03F16F0003F16E0CC30081E608F155
:10315000010818F0030F0EF1080E7FF4CDAE51E018
:1031600019441C464A68DB6854F8085F42F00102C3
:103170004A603046EB609D6000F0CEF9EBE6E8086F
:1031800005F1080330E6234430465A6842F0010254
:103190005A60083400F0C0F9DDE6611945F0010E0F
:1031A00042F00105C4F804E03046C7E90411C1E962
:1031B00002CC4D60E25000F0AFF90834CBE69A093A
:1031C00002F13901C90038329CE7BC425FD0BC68CB
:1031D000616821F0030BAB45ABEB050302D30F2B6A
:1031E0003FF759AF304600F097F90024B3E603F1FA
:1031F0005C0003F15B0CC3002BE659F808394B4522
:1032000040F0968010F0030F00F1FF30F5D17B689D
:1032100023EA04037B6064009C423FF6B7AE1CB90E
:10322000B4E6640008F104081C42FAD040465FE6A8
:1032300003F1100BC7E67B6892104FF0010808FA03
:1032400002F213437B6070E702EB0B004042C0F3D5
:103250000B09494630460092FDF720FA431CDDE990
:1032600000237FF4E6AED146E6E6542A25D81A0BB1
:1032700002F16F01C9006E3244E7B3F5AA7F25D889
:10328000EB0B03F1780003F1770CC300E1E5294B68
:10329000196859441960A8E6CAF30B0CBCF1000F79
:1032A0007FF4A3AEC344BC684BF001016160E7E664
:1032B0001446E5E60123536094E7B2F5AA7F23D8CC
:1032C000DA0B02F17801C90077321BE740F2545261
:1032D000934223D8AB0C03F17D0003F17C0CC300B7
:1032E000B7E5AAF1080AD344ABEB020B4FF0000993
:1032F000A2E604F1080130460093FFF747FCBC68E2
:10330000009B61681868BBE640F254518A420BD8B2
:103310009A0C02F17D01C9007C32F3E64FF47E7312
:103320007F204FF07E0C94E54FF47E717E22E9E61B
:103330007B6870E70C0A0010844641EA000313F032
:1033400003036DD1403A41D351F8043B40F8043BAC
:1033500051F8043B40F8043B51F8043B40F8043B6F
:1033600051F8043B40F8043B51F8043B40F8043B5F
:1033700051F8043B40F8043B51F8043B40F8043B4F
:1033800051F8043B40F8043B51F8043B40F8043B3F
:1033900051F8043B40F8043B51F8043B40F8043B2F
:1033A00051F8043B40F8043B51F8043B40F8043B1F
:1033B00051F8043B40F8043B51F8043B40F8043B0F
:1033C00051F8043B40F8043B403ABDD2303211D3AF
:1033D00051F8043B40F8043B51F8043B40F8043BEF
:1033E00051F8043B40F8043B51F8043B40F8043BDF
:1033F000103AEDD20C3205D351F8043B40F8043BAF
:10340000043AF9D2043208D0D2071CBF11F8013BAC
:1034100000F8013B01D30B8803806046704700BF72
:10342000082A13D38B078DD010F003038AD0C3F181
:103430000403D21ADB071CBF11F8013B00F8013B63
:1034400080D331F8023B20F8023B7BE7043AD9D322
:10345000013A11F8013B00F8013BF9D20B780370F7
:103460004B7843708B78837060467047F0B4860762
:1034700046D0541E002A3CD0CAB2034602E014F1E2
:10348000FF3436D303F8012B9D07F8D1032C29D93B
:10349000CDB245EA05250F2C45EA054533D9A4F1FF
:1034A0001006360903F1200707EB061703F1100297
:1034B00042E9045542E902551032BA42F8D1721C71
:1034C00014F00C0F03EB021204F00F0613D0331F9D
:1034D00023F003030433134442F8045B9342FBD10B
:1034E00006F003042CB1C9B21C4403F8011B9C4232
:1034F000FBD1F0BC704734461346002CF3D1F8E7FB
:1035000014460346C2E71A462646E0E70148FFF79D
:1035100057BC00BF600A00100148FFF753BC00BF52
:10352000600A0010830710B5044610D10268A2F1AA
:10353000013323EA020313F0803F08D150F8042F2F
:10354000A2F1013323EA020313F0803FF6D003789F
:103550001BB110F8013F002BFBD100F003F820460F
:1035600010BD00BF80EA0102844612F0030F4FD164
:1035700011F0030F32D14DF8044D11F0040F51F842
:10358000043B0BD0A3F101329A4312F0803F04BFF9
:103590004CF8043B51F8043B16D100BF51F8044BE2
:1035A000A3F101329A4312F0803FA4F101320BD112
:1035B0004CF8043BA24312F0803F04BF51F8043B97
:1035C0004CF8044BEAD023460CF8013B13F0FF0FF4
:1035D0004FEA3323F8D15DF8044B704711F0010F27
:1035E00006D011F8012B0CF8012B002A08BF7047F8
:1035F00011F0020FBFD031F8022B12F0FF0F16BFEF
:103600002CF8022B8CF8002012F47F4FB3D17047B6
:1036100011F8012B0CF8012B002AF9D1704700BFDB
:10362000FFFFFFFFFFFFFFFFFFFFFFFFFFFFFFFFAA
:10363000FFFFFFFFFFFFFFFFFFFFFFFFFFFFFFFF9A
:1036400090F800F06DE9024520F007016FF0000CE2
:1036500010F0070491F820F040F049804FF000048A
:103660006FF00700D1E9002391F840F000F1080065
:1036700082FA4CF2A4FA8CF283FA4CF3A2FA8CF39D
:103680004BBBD1E9022382FA4CF200F10800A4FA04
:103690008CF283FA4CF3A2FA8CF3E3B9D1E9042358
:1036A00082FA4CF200F10800A4FA8CF283FA4CF38F
:1036B000A2FA8CF37BB9D1E9062301F1200182FA49
:1036C0004CF200F10800A4FA8CF283FA4CF3A2FA4F
:1036D0008CF3002BC6D0002A04BF04301A4612BA5D
:1036E000B2FA82F2FDE8024500EBD2007047D1E960
:1036F000002304F00305C4F100004FEAC50514F0EF
:10370000040F91F840F00CFA05F562EA05021CBFBF
:1037100063EA050362464FF00004A9E72DE9F04F84
:1037200003690F69BB4283B0C0F28680013F01F19B
:10373000140600F1140A56F827305AF82720BC0066
:103740000133009406EB04099A425444B2FBF3F8A7
:1037500001943AD300252A46B646D4465EF8044B77
:10376000DCF800301FFA84FB08FB0B554FEA154BC1
:10377000240C08FB04B4ADB2551BA2B2C2EB134239
:1037800015FA83F302EB23429BB243EA0243F1456D
:103790004FEA14454CF8043B4FEA2242DED2009B2C
:1037A0005AF803308BB9019A131F9A450CD252F87C
:1037B000043C4BB9A2F1080302E01A68043B1AB9B1
:1037C0009A4507F1FF37F8D30761044601F0FCFA88
:1037D00000282DDB08F101085046002356F8041B91
:1037E00005688AB29A1A0B0C12FA85F2C3EB1543DC
:1037F00003EB224392B242EA0342B14540F8042B64
:103800004FEA2343EAD25AF827200AEB87037AB912
:103810001A1F92450BD253F8042C42B9083B02E020
:103820001A68043B1AB99A4507F1FF37F8D32761A4
:10383000404603B0BDE8F08F002003B0BDE8F08F34
:103840002DE9F04F57EC106B97B0056C209C02915E
:1038500082460A920793CDE9006755B1426C6A60CF
:1038600001239340AB60294601F0C2F80023CAF857
:1038700040303E1EB4BF012300232360764BBCBF03
:1038800026F000460196B34300F0AE809DED007B2C
:103890000022002351EC170B8DED047BFEF7F6FEA2
:1038A000054678B1079A01231360219B002B00F095
:1038B00013836A4B219A1360013B0393039817B05B
:1038C000BDE8F08FDDE9047814AA15A948EC107B57
:1038D000504601F011FB340D834640F09B80DDE93A
:1038E00014542C4404F23243202B40F3BB83C3F125
:1038F00040039E40009B04F2124023FA00F0304344
:10390000FEF7E2FBA1F1F87301210246013C0E91A2
:10391000104619460022524BFEF798FA48A3D3E905
:103920000023FEF74BFC48A3D3E90023FEF790FAEF
:10393000064620460F46FEF7D7FB45A3D3E90023F2
:10394000FEF73CFC02460B4630463946FEF780FA4D
:1039500006460F4601F080FB0022814600233046D8
:103960003946FEF79DFE002840F0A9822C1BB9F1D4
:10397000160F04F1FF3800F296823A4B03EBC903AD
:10398000D3E90023DDE90401FEF78AFE00286FD0A9
:103990000023B8F1000F09F1FF390D93C0F28982BD
:1039A00000230893B9F1000F68DA089BCDF818904E
:1039B000A3EB09030893C9F100030C93029B092BA5
:1039C0004FF0000962D8052B40F34A83043B029371
:1039D0000024029B023B032B00F24186DFE813F038
:1039E000660463043B045604079A42F20F731360A3
:1039F000009BC6F31306334318D1219B002B00F024
:103A00002586194B03930833219A0398136017B046
:103A1000BDE8F08FC8F3130141F07F530E953A468D
:103A2000A4F2FF3443F44013149D71E7219B002B53
:103A300040F000840D4B039340E700BFAFF30080DC
:103A400061436F63A787D23FB3C8608B288AC63FA4
:103A5000FB799F501344D33F0000F07F8553001A39
:103A60000000F83FB053001A7853001A7453001A3C
:103A7000B8F1000FC0F2B6840D90089000230C93AB
:103A8000029BCDF81890092BC8449CD9002301242F
:103A9000CDE90A344FF0FF35029309950021CAF8A9
:103AA00044100F95504600F07DFF0E2D0390CAF88C
:103AB000400000F20A81002C00F0078106990029DD
:103AC00040F36684B14B01F00F0203EBC20393EDA8
:103AD000007B0C11E3068DED107B40F10684AC4BAE
:103AE000DDE90401D3E90823FEF792FCCDE90001EA
:103AF00004F00F0403267CB1DDE91001A44DE707B3
:103B000004D5D5E90023FEF759FB0136641005F111
:103B10000805F4D1CDE91001DDE90001DDE910234C
:103B2000FEF776FCCDE900010D9B53B1DDE90045C0
:103B30000022984B20462946FEF7B2FD002840F0AF
:103B400021853046FEF7D0FADDE90023FEF736FB8B
:103B5000914B0022FEF77CF9099B0446A1F15075B8
:103B6000002B00F0F983069B1293099B1093DDE96B
:103B700000673946304601F06FFA0090FEF7B4FA5C
:103B800002460B4630463946FEF760F97F4B009AF5
:103B90000F461099064603EBC1030B980399303288
:103BA000CDE90045D5B24C1C53E90223002800F0B2
:103BB0008D8400207949FEF72BFCDDE90023FEF718
:103BC00045F9039B32461D703B46CDE90001FEF7E7
:103BD00085FD002840F0CA8432463B4600206D49EE
:103BE000FEF734F902460B46DDE90001FEF776FDEB
:103BF000002840F02685109B012B62D0039ACDF857
:103C000040901344CDF84C80DDE90089CDF800B038
:103C1000D3469A460CE000205E49FEF717F942466B
:103C20004B46FEF73DFD002840F0EB84A24541D015
:103C30004046494600225A4BFEF7C0FA0022584B34
:103C40008046894630463946FEF7B8FA0F460646A2
:103C500001F002FA0546FEF747FA02460B463046E7
:103C60003946FEF7F3F83035EDB242464B4604F8DC
:103C7000015B06460F46FEF713FD32463B46002821
:103C8000C9D0129BDA460133DDF800B006935946DD
:103C9000504600F0ADFE00232370079B1A46069B9A
:103CA0001360219B002B3FF409AE03981C6017B0F2
:103CB000BDE8F08FDA46DDF84090DDF84C80DDF8A5
:103CC00000B0DDE90434CDE90034159B002BC0F2CF
:103CD000C980069A0E2A00F3C5802C4B03EBC20361
:103CE000D3E900890A9B002B17DA099F002F14DC07
:103CF00040F04B8300222B4B40464946FEF75EFACC
:103D0000DDE90023FEF7E0FC002800F0BE83099FF8
:103D10003D460A9B039CDB4360E2DDE900454246E9
:103D20004B4620462946FEF773FB01F095F90090BB
:103D3000FEF7DAF942464B46FEF740FA02460B46DA
:103D400020462946FEF782F8009B039C069A3033F2
:103D500004F8013B099B0132012B06460F460692EF
:103D600054D000220E4BFEF729FA0022002306460B
:103D70000F46FEF78BFC002889D1CDF800B0012555
:103D8000DDF824B0CDF808A019E000BFB053001A48
:103D90008853001A0000F03F00001C400000E03F84
:103DA0000000244000001440FEF708FA002200231F
:103DB00006460F46FEF76AFC002840F05C83424648
:103DC0004B4630463946FEF723FB01F045F9824663
:103DD000FEF78AF942464B46FEF7F0F902460B46DB
:103DE00030463946FEF732F801350AF1300CAB4562
:103DF00006460F464FF00002A74B04F801CBD3D183
:103E0000DDF800B0CDF800A0DDF808A032463B4652
:103E100030463946FEF71CF842464B4606460F46EA
:103E2000FEF75CFC60B942464B4630463946FEF729
:103E30002DFC00283FF42BAF009BDB077FF527AF5D
:103E400014F8015C039A631E04E09A4200F0C083F8
:103E500013F8015D392D03F10104F6D06A1CD2B2CA
:103E60001A7014E70B9A002A3CD0029A012A40F3F8
:103E70005882099B5E1E0C9BB34280F234820C9BDD
:103E80000C96F31A99440026099B002BC0F2F88285
:103E9000089A14461A44984408920121504600F0AA
:103EA00047FE054621E00123B8F1000F0D93BFF650
:103EB00077ADC4F1010308934FF0000872E548465E
:103EC000FEF712F932463B46FEF7E0FB00287FF48E
:103ED0004DAD09F1FF3949E5704B0393039817B0D5
:103EE000BDE8F08F0C9E089C0B9D002C0CDDB8F1FA
:103EF000000F09DD4445089A2346A8BF4346D21A5D
:103F00000892E41AA8EB03080C9BD3B10B9B002B7F
:103F100000F08981002E10DD29463246504600F01F
:103F2000A9FE5A4601460546504600F00BFE59468A
:103F30000746504600F05CFDBB460C9B9A1B40F0C8
:103F400073810121504600F0F3FDB9F1000F0746DF
:103F500000F38E80029B012B40F37181002601202B
:103F6000B9F1000F40F08F80404410F01F0075D071
:103F7000C0F12003042B40F36D83C0F11C00089BAB
:103F80000344089304448044089B002B05DD5946F4
:103F90001A46504600F0BEFE8346B8F1000F05DD1C
:103FA00039464246504600F0B5FE07460D9B002BB1
:103FB00040F01E81099B002B40F3F580069B0133E6
:103FC00006930B9B002B77D1039CDDF82480012600
:103FD00003E000F017FD0136834639465846FFF7E7
:103FE0009DFB464500F1300904F8019B4FF00003AA
:103FF0004FF00A0259465046EBDB00230093594626
:104000000122504600F086FE3946834600F0DCFE71
:10401000002814F8012C40F36F81631E039904E01B
:10402000994200F0778113F8012D392A03F1010438
:10403000F6D001321A703946504600F0D9FC002DF6
:104040003FF425AE009921B1A94202D0504600F0BC
:10405000CFFC2946504600F0CBFC18E61C208EE72A
:104060000124B6E4C3F12006009B03FA06F047E4FE
:1040700001464A46504600F0FDFD029B012B0746D3
:1040800040F3B28100263B6907EB8303186900F017
:10409000FFFCC0F1200067E7000024408453001AB1
:1040A000294600230A22504600F0ACFC0F9B002B4F
:1040B000054640F3C1820993002C00F30D81002EC8
:1040C00040F0C581A846009B0299039E03F00102BF
:1040D0000B920A430A92099A731E1A4409923C46AB
:1040E00021465846FFF71AFB29460090584600F033
:1040F0006BFE424607462146504600F081FE009B7B
:1041000003F13002C3688146002B3ED10146584678
:10411000089200F059FE49460490504600F068FCB1
:10412000049B089A1BB90A99002900F07182002F9C
:1041300006F10109C0F26E8102990F430B993943D0
:1041400000F06881002B00F3A281099B3270B3421A
:1041500000F0A981594600230A22504600F052FC83
:104160004545834629464FF000034FF00A0250466A
:1041700013D000F047FC4146054600230A22504672
:1041800000F040FC4E468046AAE7014650460492A5
:1041900000F02EFC0123049AC9E700F033FC4E46E0
:1041A000054680469CE7029B022B40F38280099BD8
:1041B000002B7FF4AEAD39460522504600F022FCBC
:1041C00001460746584600F0FFFD00287FF7A1ADE5
:1041D000039C069B312204F8012B0133013339463D
:1041E0005046069300F004FC002D7FF432AF4EE5FC
:1041F0003946584600F0E8FD0028BFF6DBAE5946C8
:1042000000230A22504600F0FDFB069B03F1FF3815
:104210000B9B8346002B7FF443AF0F9B002B40F397
:1042200002820993D0E60C9A5946504600F022FDCE
:10423000834686E69F4B03930333FFF7E5BBDDE937
:10424000001200297FF48AAEC2F31303002B00F0A2
:10425000D580009E83E601230B930A98002846DD53
:104260000F90099000211728CAF84410099D7FF784
:1042700019AC012204235B0003F11406B04211467D
:1042800002F10102F7D2CAF844100BE401230B93A8
:104290000A9B069A13440F930133012B1846099386
:1042A000B8BF0120DEE700230B93F1E700230B9357
:1042B000D3E7069B013306930B9B002B7FF4FCAEE8
:1042C00039465846FFF72AFA039C00F130090023CB
:1042D00004F8019B009392E629462246504600F0DE
:1042E00019FD0546EBE69E1BCEE5022603E40125FB
:1042F000CDE90955FFF7D2BB03D119F0010F7FF4C7
:104300008CAE631E01E013F8012D302A03F1010485
:10431000F9D090E6069A01320692039A312313707F
:1043200089E60E9A002A00F0268103F23343089AA8
:104330000C9E14461A4498440892AEE53046FDF7A8
:10434000D3FEDDE90023FDF739FF00225A4BFDF7CC
:104350007FFD0446A1F150750022584BDDE90001B4
:10436000FDF774FD22462B4606460F46FEF7B6F9CA
:10437000002840F08980224605F100433046394646
:10438000FEF78EF900283FF49CAC00273D46C0E4C0
:1043900000F0F580069B5C42494B04F00F0203EBF2
:1043A000C203D3E90023DDE90401FDF707FF24116F
:1043B000CDE9000100F0E380424D00230226E20730
:1043C00005D5D5E90023FDF7F9FE01360123641078
:1043D00005F10805F3D1002B3FF4A6ABCDE90001B0
:1043E000FFF7A2BB0D9064E5DDE9001200297FF420
:1043F00049AEC2F31303002B7FF444AE324E164095
:10440000002E3FF4ACAD089B0133089308F101087E
:104410000126A4E5002B27464C46914612DD59465D
:104420000122504600F076FC3946834600F0CCFC71
:10443000002840F3DF80B9F1390F00F0D080009BF5
:1044400003F13109009586F800904546F3E5696867
:10445000504600F0A7FA2B6902339A00044605F192
:104460000C010C30FEF768FF21460122504600F097
:1044700051FC804627E6DDF800B0DDF808A006E430
:10448000DDE908329C1A08E500273D46A0E6392AF6
:1044900027464C4600F0A38002F10109009586F8FA
:1044A00000904546C7E5274600954C46454691464F
:1044B000A5E500BF7453001A00001C400000144022
:1044C000B053001A8853001A0000F07FDDE90001A4
:1044D000FDF774FE039B1D70109B012BCDE90001BD
:1044E00023D0109B039ACDF840901344C1469846C0
:1044F0000022644B30463946FDF760FE0F46064603
:1045000000F0AAFD0546FDF7EFFD303502460B46EB
:1045100030463946FDF79AFC04F8015BA045064693
:104520000F46E5D1C846DDF84090574B0022DDE943
:104530000001FDF78DFC32463B46FEF7B1F800283E
:1045400052D1DDE9002300204F49FDF77FFC3246C0
:104550003B46FEF7C3F800283FF4B3AB00E0144637
:1045600014F8013C302B04F1FF32F8D0129B0133D8
:104570000693FFF78CBB149BC3F13603D7E60226E4
:10458000FFF7D2BA099B002B3FF4D8AE0F9F002F44
:104590007FF797AB00223B4B20462946FDF70EFEE6
:1045A00004460D46701CCDE90045FDF79DFD2246F1
:1045B0002B46FDF703FE354B0022FDF749FC069B19
:1045C0001097013B0446A1F150751293FFF7CFBA43
:1045D000069A0132069231221A70FFF758BB39222F
:1045E00000953270454618E5129B0133069314F886
:1045F000015C27E47FF426AF19F0010F7FF41BAFB5
:1046000020E7129B0133DA460693DDF800B019E487
:10461000392A3B469146274606F10104DFD0002B9C
:104620003FF70DAF0EE7029B022B7FF749AE0F9BC2
:104630000993CDF81880BAE5029B022BF7DC0F9B9B
:1046400039E5129B01330693FFF7FCBB104B039334
:10465000FFF734B93FF498ACC0F13C008FE400247C
:10466000CAF844402146504600F09CF94FF0FF3311
:10467000CDE909340F9301230390CAF840000B934E
:10468000FFF723BB000024400000E03F00001C4077
:104690007853001AF0B587B043EC102B0C9C9DF8B2
:1046A000346004AF03ABCDE900370D4605AB621CA7
:1046B0000221FFF7C5F8059F42F20F739F4259D0C0
:1046C00003782B700E9B234330D1672E05F1010434
:1046D0004BD0472E08BF45267A1E214646BFC7F15C
:1046E00001022D232B23632A01F8026B63700BDD7B
:1046F000244BA3FB02135B0903F130016FF063004D
:10470000A17000FB0322E11C1F48D31780FB02406D
:10471000C3EBA0036FF0090000FB032230323033FB
:1047200000204A700B70887007B0F0BD2E236B70AC
:104730004278AB1C5AB1002C09DD013000E034B1E5
:1047400003F8012B10F8012F013C002AF7D1672E46
:104750000AD0472E0BD0002C12DD1C44302203F867
:10476000012BA342FBD1B7E71C466526B4E71C46E4
:104770004526B1E701462846FEF7F4FE07B0F0BD36
:104780001C46A9E71F85EB5167666666FFFFFFFFC2
:104790002DE9F04355EC104B89B080460F46164684
:1047A000994610EE100A294600220023FDF778FFF3
:1047B00010B105F100431D46002200232046294682
:1047C000FDF764FF38B13022002332707370304639
:1047D00009B0BDE8F08371A3D3E900232046294640
:1047E000FDF768FF002840F09980384600F0E4FBB0
:1047F00022462B4651EC100BFDF75CFF002840F0E1
:104800008D800022644B20462946FDF749FF07AA08
:1048100006AB002840F09180CDE90032404605AB60
:104820003A46022145EC104BFFF70AF8059D42F28B
:104830000F739D4200F099800178002900F09A8062
:10484000002D40F39A800744441C00EB050E06EB54
:10485000050C324601E062451FD0AEEB040502F8BC
:10486000011B059520463B1B14F8011B0029F2D1C2
:10487000002D40F38580002B40F382801544AC4628
:10488000302401E0002B63D002F8014BAA4203F16F
:10489000FF33A5EB0201F5D10591109A0AB9027810
:1048A000AAB366450CF1010458D0059D2E22002DB7
:1048B0008CF8002066DA002B66DDA4EB050C22469E
:1048C000302701E0002B46D002F8017B51196245E8
:1048D00003F1FF33A1EB0401F4D1059104785CB13D
:1048E000002B02DC38E0002B36D002F8014B10F828
:1048F000014F013B002CF6D1109969B3002B2BDD41
:1049000002EB030C302302F8013B9445FBD100235A
:1049100030468CF8003009B0BDE8F083109B013FB1
:10492000CDE901934046009722462B463146FFF7DA
:10493000B1FE304609B0BDE8F083CDE90032404613
:1049400005AB3A46032145EC104BFEF779FF6DE7C6
:1049500005919446A1E705919446D8E73246302167
:1049600002F8021BA44614469FE701463046FEF7B4
:10497000F9FD2CE73B4632467AE73B46B4468CE7E6
:1049800094468AE72246A9E702780AB92246B3E7A5
:1049900022469446BBE700BF0000F03F2D431CEBCE
:1049A000E2361A3FC36C70B505460C464BB153F85E
:1049B000240080B1026843F824200023C0E90333B7
:1049C00070BD2122042100F017FB0346E864002893
:1049D000EDD1002070BD012101FA04F6721D2846B8
:1049E000920000F009FB0028F3D0C0E90146E4E79B
:1049F00031B1C36C4A6853F82200086043F82210B2
:104A0000704700BFF0B50C6983B00D46064601F152
:104A1000140C0027DCF8000081B202FB0133190CF2
:104A2000000C02FB00109BB2013703EB0043BC42B9
:104A30004CF8043B4FEA1043ECDC3BB1AA68A242BD
:104A400007DD05EB8402013453612C61284603B075
:104A5000F0BD6968019301313046FFF7A3FF2A6971
:104A6000023205F10C01074692000C30FEF764FC9F
:104A7000F26C6968019B52F82100286042F82150CD
:104A80003D4605EB8402013453612C61DEE700BF33
:104A9000020C12040346CAB90304102013F07F4F1E
:104AA00004BF1B02083013F0704F04BF1B01043019
:104AB00013F0404F04BF9B000230002B05DB13F0C6
:104AC000804F00F1010008BF202070470020E5E77B
:104AD000036813F00702014607D0DA0720D49807CD
:104AE00022D55B080B600120704798B2B0B91B0C4F
:104AF000102013F0FF0F04BF1B0A08301A0704BF71
:104B00001B0904309A0704BF9B080230DA0703D45C
:104B10005B0800F1010005D00B6070471046E8E724
:104B200000207047202070479B080B6002207047D0
:104B300010B50C460121FFF735FF0122C0E904241E
:104B400010BD00BF2DE9F04F0E691769BE4283B05A
:104B50000C46154605DB3A462B4637460D461646AB
:104B60001C46D5E9011307EB06084345B8BF0131E0
:104B7000FFF718FF00F1140A0AEB8809CA450090F4
:104B800005D25346002143F8041B9945FBD804F194
:104B9000140E0EEB860B05F11403DE4503EB8707BD
:104BA00053D2CDF80480984605E0090C28D1F3458E
:104BB0000AF1040A47D95EF8041B8EB2002EF4D025
:104BC00045465446002355F8041B20688AB21FFA54
:104BD00080FC06FB02C2090C000C134406FB010218
:104BE00002EB13429BB243EA0243AF4244F8043B58
:104BF0004FEA1243E7D823605EF8041C090CD6D0B4
:104C0000DAF8003040461A4654464FF0000C05884A
:104C1000120C01FB052294449BB243EA0C4344F876
:104C2000043B50F8043B22681B0C95B201FB035374
:104C300003EB1C4387424FEA134CE8D8F34523604B
:104C40000AF1040AB7D8DDF80480B8F1000F0BDDD3
:104C500059F8043CA9F104091BB105E059F8043DD9
:104C600013B9B8F10108F9D10098C0F8108003B069
:104C7000BDE8F08F12F003032DE9F041144607461A
:104C80002ED10D46A4101CD0BE6C96B3E3074FF096
:104C9000000806D4641014D03068A8B10646E307B3
:104CA000F8D5324629463846FFF74CFFB5B16A6859
:104CB000FB6C641053F82210296043F8225005461B
:104CC000EAD12846BDE8F081324631463846FFF742
:104CD00039FF3060C0F800800646E0E70546D9E7B6
:104CE000013B0B4A52F823200023FFF78BFE0546B9
:104CF000C8E701213846FFF755FE40F271234361B2
:104D00000122002302610646B8640360BEE700BFCB
:104D10007854001A2DE9F8430E690D464FEA6219DE
:104D2000D1E901134E44741C9C429046074604DDB1
:104D30005B009C4201F10101FADC3846FFF732FECC
:104D4000B9F1000F00F1140C0EDD09F105094FEA6D
:104D5000890900EB09016346002243F8042B8B42CA
:104D6000FBD1A9F11409CC44296905F1140318F009
:104D70001F0803EB810E1DD0C8F12009002219681D
:104D800001FA08F111434CF8041B53F8042B734546
:104D900022FA09F2F3D3CCF80020002A18BF2646E5
:104DA000FB6C6A68066153F82210296043F82250B0
:104DB000BDE8F883ACF1040C53F8042B4CF8042F35
:104DC0009E45F9D8ECE700BF30B40B690546006991
:104DD000C01A10D19B001435143119442B4401E042
:104DE0009D4208D253F8044D51F8042D9442F7D057
:104DF00003D24FF0FF3030BC7047012030BC704709
:104E00002DE9F8430F460D6911696D1A002D904682
:104E1000844607F1140402F1140614D189006318C2
:104E2000314401E0A3425DD953F8040D51F8042D3B
:104E30009042F7D009D222463B46344647461646B2
:104E40009846012501E0F6DB002560467968FFF70A
:104E5000A9FD3F69D8F81030C56006EB830E04EB5E
:104E6000870C00F11405002200E00D4656F8041BE3
:104E700054F8048B1FFA81F912FA88F30A0CA3EB99
:104E80000903C2EB184202EB234229469BB243EAD4
:104E90000243B6454FEA224241F8043BA046E4D81B
:104EA000A44516D90E4658F8045B12FA85F31A1475
:104EB00002EB15429BB243EA0243C44546F8043B69
:104EC0004FEA2242EFD80CF1FF352D1B25F00305E8
:104ED0000D4423B955F8043D013F002BFAD007617A
:104EE000BDE8F88360460021FFF75CFD0122002346
:104EF000C0E90423BDE8F8832DE9F0430F4683B0F1
:104F0000012155EC104B1646FFF74CFDC5F30A582E
:104F10008146C5F31303B8F1000F01D043F48013A9
:104F2000002C01932BD068460094FFF7D1FDD0B937
:104F3000DDE90023C9F81420002B14BF0221012150
:104F4000C9F81830C9F81010B8F1000F24D0A8F231
:104F5000334808EB0003C0F135003B603060484641
:104F600003B0BDE8F083DDE90013C0F1200203FACD
:104F700002F20A43C3400193C9F81420DCE701A8F8
:104F8000FFF7A6FD019BC9F8143001212030C9F8B4
:104F90001010B8F1000FDAD109EB8103A0F2324012
:104FA00038601869FFF774FDC0EB41103060484667
:104FB00003B0BDE8F08300BF1728D0B504460CDD70
:104FC0000A490B4F0020002632463B46FDF7F6F813
:104FD000013CF9D141EC100BD0BD064B03EBC004F2
:104FE000D4E9000141EC100BD0BD00BF0000F03F40
:104FF00000002440B053001A10B502FB01F1FDF788
:10500000E3FE044668B150F8042C22F00302043A8F
:10501000242A18D8132A06D802460023C2E90033EE
:105020009360204610BD00231B2AC0E900330FD92E
:10503000242AC0E9023312BF00F11002C0E9043390
:1050400000F11802E9E70021FEF710FA204610BD32
:1050500000F10802E1E700BF4FEA410212F5001239
:1050600015D211D56FF47873B3EB625212D94FEAAF
:10507000C12343F0004343EA505311F0004F23FA99
:1050800002F018BF404270474FF00000704750EAEE
:10509000013005D111F0004008BF6FF000407047AB
:1050A0004FF00000704700BF2F0000002F2300FFCB
:1050B0004E6F2064657669636520666F756E640D5A
:1050C0000A00FFFF010F0101020044000201440039
:1050D00002024400020A4000020B4000020C4000A1
:1050E0000100500001015000010250000106500073
:1050F0000601500006045000060550000607540043
:105100000608540006095000060A5000060B50001D
:10511000060C50000F04F0000103D5000104D50077
:105120000701160007025600020352000204520053
:10513000090552000906570006025700000000004A
:105140000004000800090109050005010502000E20
:10515000010B010C030003030304050F05100305F5
:10516000030603070208FFFF001BB7000001010050
:10517000090901000A0901000107010102090100F2
:10518000060901000C0901010D0901000E090100C9
:105190000F090100100901001109010012090100A5
:1051A0001309010014110100191101001A11010065
:1051B0001B11010001020408030F0F0FFF00FFFF86
:1051C000000005000A002000240009004000400003
:1051D00005006000A6000400C000C3000200E0005B
:1051E000E000010000010001030020012001060091
:1051F000400140010C0042014201190062016201BC
:105200001300820182011200A201A2011100C20159
:10521000C2011000E201E2010F00020202020E00D0
:10522000220222020D00230223021C00C201A2015D
:105230008201620181008200A100A200040100023B
:1052400001070500030D0105000108040200020228
:1052500004030002030400000200070400030C031F
:1052600002040509030104050802030405030204FE
:10527000040504060C000208060B000307060900DB
:105280000305060704050F060400030304040002D7
:105290000404050002050406000206040804050CC7
:1052A000040A04050E010300000A011400000F01A6
:1052B0001200000D011100000C011000000307078F
:1052C00000030F00010000010000000000060A00BA
:1052D0000306060804051006050003040601000382
:1052E00000040904050D010400000B010F00000279
:1052F0000100000004010100000801020000090192
:105300000600010902000405000201040501020271
:10531000040502020A00000E020B00010B020C0041
:10532000010CFFFF801A06000A0000000010084070
:1053300006040206050218000010084009050709C6
:1053400006071800002008400000000000001900B7
:1053500000100C400701060702061A0000100C405E
:10536000010F010110011A0000200C40020302028B
:1053700004021B004E614E00496E66696E697479C5
:1053800000000000300000000080E03779C3414396
:10539000176E05B5B5B89346F5F93FE9034F384D9B
:1053A000321D30F94877825A3CBF737FDD4F157547
:1053B000000000000000F03F00000000000024405A
:1053C00000000000000059400000000000408F4035
:1053D000000000000088C34000000000006AF840A0
:1053E0000000000080842E4100000000D0126341C4
:1053F0000000000084D797410000000065CDCD413A
:10540000000000205FA00242000000E8764837421A
:10541000000000A2941A6D42000040E59C30A242B8
:105420000000901EC4BCD64200003426F56B0C432D
:105430000080E03779C3414300A0D88557347643D4
:1054400000C84E676DC1AB43003D9160E458E14335
:10545000408CB5781DAF154450EFE2D6E41A4B44AA
:1054600092D54D06CFF08044F64AE1C7022DB544EF
:10547000B49DD9794378EA44050000001900000082
:045480007D000000AB
:045484001109001AF0
:0854880038D3FF7F0100000092
:1054900000100A4022000000CD09001A00000000A0
:1054A00000000000000000000000000000000E40AE
:1054B00001000000CD09001A0000000000000000FB
:1054C000000000000000000000CB280CFFFFFFFFE1
:1054D000010000000000000050000010FFFFFFFF6F
:1054E000000000003C030010A40300100C04001096
:1054F00000000000000000000000000000000000AC
:10550000000000000000000000000000000000009B
:10551000000000000000000000000000000000008B
:10552000000000000000000000000000000000007B
:10553000000000000000000000000000000000006B
:10554000000000000000000000000000000000005B
:10555000000000000000000000000000000000004B
:10556000000000000000000000000000000000003B
:10557000000000000000000000000000000000002B
:10558000000000000000000001000000000000001A
:105590000E33CDAB34126DE6ECDE05000B000000DF
:1055A00000000000000000000000000000000000FB
:1055B00000000000000000000000000000000000EB
:1055C00000000000000000000000000000000000DB
:1055D00000000000000000000000000000000000CB
:105910007804001078040010800400108004001047
:1059200088040010880400109004001090040010F7
:105930009804001098040010A0040010A0040010A7
:10594000A8040010A8040010B0040010B004001057
:10595000B8040010B8040010C0040010C004001007
:10596000C8040010C8040010D0040010D0040010B7
:10597000D8040010D8040010E0040010E004001067
:10598000E8040010E8040010F0040010F004001017
:10599000F8040010F80400100005001000050010C5
:1059A0000805001008050010100500101005001073
:1059B0001805001018050010200500102005001023
:1059C00028050010280500103005001030050010D3
:1059D0003805001038050010400500104005001083
:1059E0004805001048050010500500105005001033
:1059F00058050010580500106005001060050010E3
:105A00006805001068050010700500107005001092
:105A10007805001078050010800500108005001042
:105A200088050010880500109005001090050010F2
:105A30009805001098050010A0050010A0050010A2
:105A4000A8050010A8050010B0050010B005001052
:105A5000B8050010B8050010C0050010C005001002
:105A6000C8050010C8050010D0050010D0050010B2
:105A7000D8050010D8050010E0050010E005001062
:105A8000E8050010E8050010F0050010F005001012
:105A9000F8050010F80500100006001000060010C0
:105AA000080600100806001010060010100600106E
:105AB000180600101806001020060010200600101E
:105AC00028060010280600103006001030060010CE
:105AD000380600103806001040060010400600107E
:105AE000480600104806001050060010500600102E
:105AF00058060010580600106006001060060010DE
:105B0000680600106806001070060010700600108D
:105B1000780600107806001080060010800600103D
:105B200088060010880600109006001090060010ED
:105B30009806001098060010A0060010A00600109D
:105B4000A8060010A8060010B0060010B00600104D
:105B5000B8060010B8060010C0060010C0060010FD
:105B6000C8060010C8060010D0060010D0060010AD
:105B7000D8060010D8060010E0060010E00600105D
:105B8000E8060010E8060010F0060010F00600100D
:105B9000F8060010F80600100007001000070010BB
:105BA0000807001008070010100700101007001069
:105BB0001807001018070010200700102007001019
:105BC00028070010280700103007001030070010C9
:105BD0003807001038070010400700104007001079
:105BE0004807001048070010500700105007001029
:105BF00058070010580700106007001060070010D9
:105C00006807001068070010700700107007001088
:105C10007807001078070010800700108007001038
:105C200088070010880700109007001090070010E8
:105C30009807001098070010A0070010A007001098
:105C4000A8070010A8070010B0070010B007001048
:105C5000B8070010B8070010C0070010C0070010F8
:105C6000C8070010C8070010D0070010D0070010A8
:105C7000D8070010D8070010E0070010E007001058
:105C8000E8070010E8070010F0070010F007001008
:105C9000F8070010F80700100008001000080010B6
:105CA0000808001008080010100800101008001064
:105CB0001808001018080010200800102008001014
:105CC00028080010280800103008001030080010C4
:105CD0003808001038080010400800104008001074
:105CE0004808001048080010500800105008001024
:105CF00058080010580800106008001060080010D4
:105D00006808001068080010700800107008001083
:085D1000FFFFFFFF000002008D
:040000051A000611C6
:00000001FF
